:020000040000FA
:10000000DEEF05F0120FF66E000EF7220900F55034
:1000100012000000000000000000000000000000CE
:1000200000000000000000000000000000000000D0
:1000300000000000000000000000000000000000C0
:100040000000000000000007FF00000000000000AA
:10005000000000000000003FFFF000000000000072
:1000600000000000000000FFFFF0000000000000A2
:1000700000000000000003FFFFF800000000000087
:1000800000000000000007FFFFFC0000000000006F
:100090000000000000001FFFFFFC00000000000047
:1000A0000000000000003FFFFFFE00000000000015
:1000B0000000000000007FFFFFFD000000000000C6
:1000C000000000000000FFCFFF8F000000000000D4
:1000D000000000000000ED87FF0780000000000026
:1000E000000000000001FF03FF03C000000000004B
:1000F000000000000003FE01FC03C000000000003F
:10010000000000000003FE01FC01E0000000000010
:10011000000000000007FC00FC01E00000000000FF
:10012000000000000007F8007800F0000000000068
:10013000000000000007F8007000780000000000D8
:1001400000000000000FFC003800780000000000F4
:1001500000000000000FFE003C003C00000000001A
:1001600000000000000FEE001C001E000000000058
:1001700000000000000FCF000E001E000000000075
:1001800000000000000F87000F000F0000000000BB
:1001900000000000000F038007000F0000000000B7
:1001A00000000000000E01C0038007800000000076
:1001B00000000000000E01C003C00380000000002A
:1001C00000000000000C00E001C0038000000000FF
:1001D00000000000000800F000E0018000000000C6
:1001E00000000000000800F000F0008000000000A7
:1001F00000000000000000F8007000800000000017
:1002000000000000000000F800780000000000007E
:1002100000000000000001FC00FC000000000000E5
:1002200000000000000003FE01FC000000000000D0
:1002300000000000000007FE01FE000000000000BA
:1002400000000000000007FF03FE000000000000A7
:100250000000000000000FFF87FF0000000000000A
:100260000000000000001FFF87FF8000000000006A
:100270000000000000001FFFFFFF800000000000E2
:100280000000000000003FFFFFFFC0000000000072
:100290000000000000001FFFFFFFC0000000000082
:1002A00000000000000007FFFFFF800000000000CA
:1002B00000000000000003FFFFFE0000000000003F
:1002C00000000000000000FFFFF800000000000038
:1002D000000000000000003FFFE000000000000000
:1002E0000000000000000003FF000000000000000C
:1002F00000000000000000000000000000000000FE
:1003000000000000000000000000000000000000ED
:1003100000000000000000000000000000000000DD
:1003200000000000000000000000000000000000CD
:1003300000000000000000000000000000000000BD
:1003400000000601C00000000000000000000000E6
:1003500000000F03C00000000000000000000000CB
:1003600000000F83C000000000000000000000003B
:1003700000000F87E73FF7FE3FE3FF70677FE00075
:1003800000000FC7E73FF7FF7FF3FF70777FF000B4
:1003900000000DCEE73007077077007077707000AF
:1003A00000001CFEE73007077077007FF7707000D1
:1003B00000001CFCE73007FE7077007FF77FF0003D
:1003C00000001C7C677007FE70770070777FE0008C
:1003D00000001C78773FF7077FF3FF70777000000D
:1003E00000001C00771FF7073FE3FF7077700000E5
:1003F00000000000000000000000000000000000FD
:1004000000000000000000000000000000000000EC
:100410000000200FF66E040EF7220900F5501200BE
:1004200000000000000000000000000000000000CC
:1004300000000000000000000000000000000000BC
:1004400000000000000000000000000000000000AC
:10045000000000000000000000000000000000009C
:10046000000000000000000000000000000000008C
:10047000000000000000000000000000000000007C
:10048000000000000000000000000000000000006C
:10049000000000000000000000000000000000005C
:1004A000000000000000000000000000000000004C
:1004B000000000000000000000000000000000003C
:1004C000000000000000000000000000000000002C
:1004D000000000000000000000000000000000001C
:1004E000000000000000000000000000000000000C
:1004F00000000000000000000000000000000000FC
:1005000000000000000000000000000000000000EB
:1005100000000000000000000000000000000000DB
:1005200000000000000000000000000000000000CB
:1005300000000000000000000000000000000000BB
:1005400000000000000000000000000000000000AB
:10055000000000000000000000000000000000009B
:100560000000000000000000000007800000000004
:100570000000FFE000000000000003800000000019
:100580000003003C000000000000038000000000A9
:100590000006001C000000000000038000000000B6
:1005A000000C0018000000000000038000000000A4
:1005B00000180000000000000000038000000000A0
:1005C0000018000000000000000003800000000090
:1005D0000030000000000000000003800000000068
:1005E0000070000001F000F8007DC380EC00000006
:1005F00000700000040C0206008703810700000061
:1006000000600000080604030103038203000000E9
:10061000006000001007080381018386038000004A
:100620000060000010038801C30183860C000000F5
:100630000070000030039801C7018384700000003F
:100640000070000030039801C701838E8000000015
:100650000070000030039801C301838F0000000088
:10066000007800FE38039C01C3810386000000006F
:100670000038000E38039C01C1C30387000000004E
:10068000003C000E38031C0180E4038700000000DA
:10069000001E000E1C030E01801C0387800000005A
:1006A000000F000E0C060603000C0383C0000000C0
:1006B0000007800E070C0386000E07C1FF00000034
:1006C0000001E03C01F000F8000F80007E00000017
:1006D00000007FC00000000001A3C0000000000077
:1006E00000000000000000000301C0000000000046
:1006F00000000000000000000600E0000000000014
:100700000000000000000000040060000000000085
:1007100000000000000000000C006000000000006D
:1007200000000000000000000C004000000000007D
:1007300000000000000000000E00C00000000000EB
:100740000000000000000000070180000000000021
:10075000000000000000000001FE0000000000009A
:100760000000000000000000000000000000000089
:100770000000000000000000000000000000000079
:100780000000000000000000000000000000000069
:100790000000000000000000000000000000000059
:1007A0000000000000000000000000000000000049
:1007B0000000000000000000000000000000000039
:1007C0000000000000000000000000000000000029
:1007D0000000000000000000000000000000000019
:1007E0000000000000000000000000000000000009
:1007F00000000000000000000000000000000000F9
:1008000000000000000000000000000000000000E8
:1008100000000000000000000000000000000000D8
:10082000155203E094928B8202D094908B80939225
:100830008A92956A16C08CFF000093948A8400D037
:1008400000D0000093948A9494908B9094928B9211
:10085000000C086A0850070834E393988A98156AD0
:10086000400E166EDDDF010E156E400E166ED8DFDF
:100870000850B8090A6E156A166ED2DF0850B8091A
:100880000A6E010E156E0AC016F0CADF93988A88A8
:10089000096A09503F0813E30750FF0DF3CF0AF030
:1008A000156A0AC016F0BCDF0750FF0DF3CF0AF03F
:1008B000010E156E0AC016F0B3DF092AEAD7082A1E
:1008C000C9D7000C93968A8693948A9494908B90BF
:1008D00094928B9293988A98156AC00E166EA0DF38
:1008E000010E156EC00E166E9BDF156A400E166E59
:1008F00097DF010E156E400E166E92DF156AB80E68
:10090000166E8EDF010E156EB80E166E89DF062C80
:100910000AD0156A3F0E166E83DF010E156E3F0E6C
:10092000166E7EDF09D0156A3E0E166E79DF010E57
:10093000156E3E0E166E74DF076A8BDF02EF06F04F
:100940000A500C02F3CF01F0F4CF00F00D02F35087
:1009500000260B500C02F3500020026E000CFF0E1C
:10096000956E93928A82125203E094928B8202D007
:1009700094908B80000093948A8400D000D0FF0E66
:10098000956E83CF13F093948A9494908B90949265
:100990008B9213C001F0000C10900C503F0803E242
:1009A000400E0C5E108093988A980C9E0C8C000E62
:1009B00010B0010E156E0CC016F032DF000E10B034
:1009C000010E116E0D30006E003200321F0E001647
:1009D0000050BF0BB809146E11C015F0166E20DF61
:1009E00093988A88000E10B0010E126EB8DF000EC8
:1009F00010B0010E126EB3DF01C00FF00E2C0FD03D
:100A00000D50070B116E010E006E1150016E04E0C7
:100A1000D8900036012EFCD700500F120FD00D5089
:100A2000070B116E010E006E1150016E04E0D8909C
:100A30000036012EFCD70050FF0A0F1693988A98B3
:100A4000000E10B0010E156E0CC016F0E9DE939882
:100A50008A88000E10B0010E156E0FC016F0E0DE91
:100A6000000C062C4AD0076A07503F0846E3086A84
:100A700008500F0840E3070E096E0950800A7F08EE
:100A800038E20B6A07C00AF00D6A100E0C6E58DFD0
:100A900002C00BF001C00AF008500124016E000EE4
:100AA0000220036E0150F2CF0CF0F29E03C0F7FF5C
:100AB00002EC00F00CBEF28E0D6E070ED8800954C9
:100AC0000E6E0DC000F00E50016E04E0D8900032A2
:100AD000012EFCD700A00BD00850080DF3500924BC
:100AE0000B6E0C6E07C00DF0010E0E6E55DF090681
:100AF000C4D7082ABDD7072AB7D70650020849E14C
:100B0000076A07503F0845E3086A08500F083FE3AB
:100B1000070E096E0950800A7F0837E20B6A07C08A
:100B20000AF00D6A100E0C6E0BDF02C00BF001C054
:100B30000AF008500124016E000E0220036E0150DD
:100B4000F2CF0CF0F29E03C0F7FF63DC0CBEF28E16
:100B50000D6E070ED88009540E6E0DC000F00E50B9
:100B6000016E04E0D8900032012EFCD700A00BD01B
:100B70000850080DF35009240B6E0C6E07C00DF0E1
:100B8000010E0E6E09DF0906C5D7082ABED7072A4F
:100B9000B8D7000CEA6A070EE96EEF500EE0010EBE
:100BA000016E006A002EFED7012EFBD74A0E006EA2
:100BB000002EFED700D0EF2EF2D7000CF86AD09EA0
:100BC000EA6AE96AC180C182C184C196C180C182DA
:100BD000C184C196C2909698C69A949A9488949625
:100BE000010EC66E000EC76ED190800ED56ECD6A16
:100BF000000ECA6E000ECB6EB150480BB16E010EE6
:100C0000066E60D6076A25DE010E066E2ADF0C0E20
:100C1000066EFA0E076EBEDF062EFBD7076A19DED8
:100C2000020E066E1EDF0C0E066EFA0E076EB2DFA7
:0C0C3000062EFBD7076A0DDEE7D7030095
:020000040030CA
:0E00000000210C0E000181000FC00FE00F4028
:00000001FF
;PIC18F452
